{
	"Рабочий стол/ETH projects/Open Auction/open_auction/auction.sol": {
		"SimpleAuction": {
			"abi": [
				{
					"inputs": [
						{
							"internalType": "uint256",
							"name": "biddingTime",
							"type": "uint256"
						},
						{
							"internalType": "address payable",
							"name": "beneficiaryAddress",
							"type": "address"
						}
					],
					"stateMutability": "nonpayable",
					"type": "constructor"
				},
				{
					"inputs": [],
					"name": "AuctionAlreadyEnded",
					"type": "error"
				},
				{
					"inputs": [],
					"name": "AuctionEndAlreadyCalled",
					"type": "error"
				},
				{
					"inputs": [],
					"name": "AuctionNotEndedYet",
					"type": "error"
				},
				{
					"inputs": [
						{
							"internalType": "uint256",
							"name": "highestBid",
							"type": "uint256"
						}
					],
					"name": "BidNotHighEnough",
					"type": "error"
				},
				{
					"anonymous": false,
					"inputs": [
						{
							"indexed": false,
							"internalType": "address",
							"name": "winner",
							"type": "address"
						},
						{
							"indexed": false,
							"internalType": "uint256",
							"name": "amount",
							"type": "uint256"
						}
					],
					"name": "AuctionEnded",
					"type": "event"
				},
				{
					"anonymous": false,
					"inputs": [
						{
							"indexed": false,
							"internalType": "address",
							"name": "bidder",
							"type": "address"
						},
						{
							"indexed": false,
							"internalType": "uint256",
							"name": "amount",
							"type": "uint256"
						}
					],
					"name": "HighestBidIncreased",
					"type": "event"
				},
				{
					"inputs": [],
					"name": "auctionEndTime",
					"outputs": [
						{
							"internalType": "uint256",
							"name": "",
							"type": "uint256"
						}
					],
					"stateMutability": "view",
					"type": "function"
				},
				{
					"inputs": [],
					"name": "beneficiary",
					"outputs": [
						{
							"internalType": "address payable",
							"name": "",
							"type": "address"
						}
					],
					"stateMutability": "view",
					"type": "function"
				},
				{
					"inputs": [],
					"name": "bid",
					"outputs": [],
					"stateMutability": "payable",
					"type": "function"
				},
				{
					"inputs": [],
					"name": "highestBid",
					"outputs": [
						{
							"internalType": "uint256",
							"name": "",
							"type": "uint256"
						}
					],
					"stateMutability": "view",
					"type": "function"
				},
				{
					"inputs": [],
					"name": "highestBidder",
					"outputs": [
						{
							"internalType": "address",
							"name": "",
							"type": "address"
						}
					],
					"stateMutability": "view",
					"type": "function"
				},
				{
					"inputs": [],
					"name": "withdraw",
					"outputs": [
						{
							"internalType": "bool",
							"name": "",
							"type": "bool"
						}
					],
					"stateMutability": "nonpayable",
					"type": "function"
				}
			],
			"devdoc": {
				"kind": "dev",
				"methods": {},
				"version": 1
			},
			"evm": {
				"assembly": "    /* \"\\xd0\\xa0\\xd0\\xb0\\xd0\\xb1\\xd0\\xbe\\xd1\\x87\\xd0\\xb8\\xd0\\xb9 \\xd1\\x81\\xd1\\x82\\xd0\\xbe\\xd0\\xbb/ETH projects/Open Auction/open_auction/auction.sol\":60:2431  contract SimpleAuction{... */\n  mstore(0x40, 0x80)\n    /* \"\\xd0\\xa0\\xd0\\xb0\\xd0\\xb1\\xd0\\xbe\\xd1\\x87\\xd0\\xb8\\xd0\\xb9 \\xd1\\x81\\xd1\\x82\\xd0\\xbe\\xd0\\xbb/ETH projects/Open Auction/open_auction/auction.sol\":1074:1269  constructor(... */\n  callvalue\n  dup1\n  iszero\n  tag_1\n  jumpi\n  0x00\n  dup1\n  revert\ntag_1:\n  pop\n  mload(0x40)\n  sub(codesize, bytecodeSize)\n  dup1\n  bytecodeSize\n  dup4\n  codecopy\n  dup2\n  dup2\n  add\n  0x40\n  mstore\n  dup2\n  add\n  swap1\n  tag_2\n  swap2\n  swap1\n  tag_3\n  jump\t// in\ntag_2:\n    /* \"\\xd0\\xa0\\xd0\\xb0\\xd0\\xb1\\xd0\\xbe\\xd1\\x87\\xd0\\xb8\\xd0\\xb9 \\xd1\\x81\\xd1\\x82\\xd0\\xbe\\xd0\\xbb/ETH projects/Open Auction/open_auction/auction.sol\":1185:1203  beneficiaryAddress */\n  dup1\n    /* \"\\xd0\\xa0\\xd0\\xb0\\xd0\\xb1\\xd0\\xbe\\xd1\\x87\\xd0\\xb8\\xd0\\xb9 \\xd1\\x81\\xd1\\x82\\xd0\\xbe\\xd0\\xbb/ETH projects/Open Auction/open_auction/auction.sol\":1171:1182  beneficiary */\n  0x00\n  dup1\n    /* \"\\xd0\\xa0\\xd0\\xb0\\xd0\\xb1\\xd0\\xbe\\xd1\\x87\\xd0\\xb8\\xd0\\xb9 \\xd1\\x81\\xd1\\x82\\xd0\\xbe\\xd0\\xbb/ETH projects/Open Auction/open_auction/auction.sol\":1171:1203  beneficiary = beneficiaryAddress */\n  0x0100\n  exp\n  dup2\n  sload\n  dup2\n  0xffffffffffffffffffffffffffffffffffffffff\n  mul\n  not\n  and\n  swap1\n  dup4\n  0xffffffffffffffffffffffffffffffffffffffff\n  and\n  mul\n  or\n  swap1\n  sstore\n  pop\n    /* \"\\xd0\\xa0\\xd0\\xb0\\xd0\\xb1\\xd0\\xbe\\xd1\\x87\\xd0\\xb8\\xd0\\xb9 \\xd1\\x81\\xd1\\x82\\xd0\\xbe\\xd0\\xbb/ETH projects/Open Auction/open_auction/auction.sol\":1251:1262  biddingTime */\n  dup2\n    /* \"\\xd0\\xa0\\xd0\\xb0\\xd0\\xb1\\xd0\\xbe\\xd1\\x87\\xd0\\xb8\\xd0\\xb9 \\xd1\\x81\\xd1\\x82\\xd0\\xbe\\xd0\\xbb/ETH projects/Open Auction/open_auction/auction.sol\":1233:1248  block.timestamp */\n  timestamp\n    /* \"\\xd0\\xa0\\xd0\\xb0\\xd0\\xb1\\xd0\\xbe\\xd1\\x87\\xd0\\xb8\\xd0\\xb9 \\xd1\\x81\\xd1\\x82\\xd0\\xbe\\xd0\\xbb/ETH projects/Open Auction/open_auction/auction.sol\":1233:1262  block.timestamp + biddingTime */\n  tag_6\n  swap2\n  swap1\n  tag_7\n  jump\t// in\ntag_6:\n    /* \"\\xd0\\xa0\\xd0\\xb0\\xd0\\xb1\\xd0\\xbe\\xd1\\x87\\xd0\\xb8\\xd0\\xb9 \\xd1\\x81\\xd1\\x82\\xd0\\xbe\\xd0\\xbb/ETH projects/Open Auction/open_auction/auction.sol\":1216:1230  auctionEndTime */\n  0x01\n    /* \"\\xd0\\xa0\\xd0\\xb0\\xd0\\xb1\\xd0\\xbe\\xd1\\x87\\xd0\\xb8\\xd0\\xb9 \\xd1\\x81\\xd1\\x82\\xd0\\xbe\\xd0\\xbb/ETH projects/Open Auction/open_auction/auction.sol\":1216:1262  auctionEndTime = block.timestamp + biddingTime */\n  dup2\n  swap1\n  sstore\n  pop\n    /* \"\\xd0\\xa0\\xd0\\xb0\\xd0\\xb1\\xd0\\xbe\\xd1\\x87\\xd0\\xb8\\xd0\\xb9 \\xd1\\x81\\xd1\\x82\\xd0\\xbe\\xd0\\xbb/ETH projects/Open Auction/open_auction/auction.sol\":1074:1269  constructor(... */\n  pop\n  pop\n    /* \"\\xd0\\xa0\\xd0\\xb0\\xd0\\xb1\\xd0\\xbe\\xd1\\x87\\xd0\\xb8\\xd0\\xb9 \\xd1\\x81\\xd1\\x82\\xd0\\xbe\\xd0\\xbb/ETH projects/Open Auction/open_auction/auction.sol\":60:2431  contract SimpleAuction{... */\n  jump(tag_8)\n    /* \"#utility.yul\":88:205   */\ntag_10:\n    /* \"#utility.yul\":197:198   */\n  0x00\n    /* \"#utility.yul\":194:195   */\n  dup1\n    /* \"#utility.yul\":187:199   */\n  revert\n    /* \"#utility.yul\":334:411   */\ntag_12:\n    /* \"#utility.yul\":371:378   */\n  0x00\n    /* \"#utility.yul\":400:405   */\n  dup2\n    /* \"#utility.yul\":389:405   */\n  swap1\n  pop\n    /* \"#utility.yul\":334:411   */\n  swap2\n  swap1\n  pop\n  jump\t// out\n    /* \"#utility.yul\":417:539   */\ntag_13:\n    /* \"#utility.yul\":490:514   */\n  tag_26\n    /* \"#utility.yul\":508:513   */\n  dup2\n    /* \"#utility.yul\":490:514   */\n  tag_12\n  jump\t// in\ntag_26:\n    /* \"#utility.yul\":483:488   */\n  dup2\n    /* \"#utility.yul\":480:515   */\n  eq\n    /* \"#utility.yul\":470:533   */\n  tag_27\n  jumpi\n    /* \"#utility.yul\":529:530   */\n  0x00\n    /* \"#utility.yul\":526:527   */\n  dup1\n    /* \"#utility.yul\":519:531   */\n  revert\n    /* \"#utility.yul\":470:533   */\ntag_27:\n    /* \"#utility.yul\":417:539   */\n  pop\n  jump\t// out\n    /* \"#utility.yul\":545:688   */\ntag_14:\n    /* \"#utility.yul\":602:607   */\n  0x00\n    /* \"#utility.yul\":633:639   */\n  dup2\n    /* \"#utility.yul\":627:640   */\n  mload\n    /* \"#utility.yul\":618:640   */\n  swap1\n  pop\n    /* \"#utility.yul\":649:682   */\n  tag_29\n    /* \"#utility.yul\":676:681   */\n  dup2\n    /* \"#utility.yul\":649:682   */\n  tag_13\n  jump\t// in\ntag_29:\n    /* \"#utility.yul\":545:688   */\n  swap3\n  swap2\n  pop\n  pop\n  jump\t// out\n    /* \"#utility.yul\":694:820   */\ntag_15:\n    /* \"#utility.yul\":731:738   */\n  0x00\n    /* \"#utility.yul\":771:813   */\n  0xffffffffffffffffffffffffffffffffffffffff\n    /* \"#utility.yul\":764:769   */\n  dup3\n    /* \"#utility.yul\":760:814   */\n  and\n    /* \"#utility.yul\":749:814   */\n  swap1\n  pop\n    /* \"#utility.yul\":694:820   */\n  swap2\n  swap1\n  pop\n  jump\t// out\n    /* \"#utility.yul\":826:930   */\ntag_16:\n    /* \"#utility.yul\":871:878   */\n  0x00\n    /* \"#utility.yul\":900:924   */\n  tag_32\n    /* \"#utility.yul\":918:923   */\n  dup3\n    /* \"#utility.yul\":900:924   */\n  tag_15\n  jump\t// in\ntag_32:\n    /* \"#utility.yul\":889:924   */\n  swap1\n  pop\n    /* \"#utility.yul\":826:930   */\n  swap2\n  swap1\n  pop\n  jump\t// out\n    /* \"#utility.yul\":936:1074   */\ntag_17:\n    /* \"#utility.yul\":1017:1049   */\n  tag_34\n    /* \"#utility.yul\":1043:1048   */\n  dup2\n    /* \"#utility.yul\":1017:1049   */\n  tag_16\n  jump\t// in\ntag_34:\n    /* \"#utility.yul\":1010:1015   */\n  dup2\n    /* \"#utility.yul\":1007:1050   */\n  eq\n    /* \"#utility.yul\":997:1068   */\n  tag_35\n  jumpi\n    /* \"#utility.yul\":1064:1065   */\n  0x00\n    /* \"#utility.yul\":1061:1062   */\n  dup1\n    /* \"#utility.yul\":1054:1066   */\n  revert\n    /* \"#utility.yul\":997:1068   */\ntag_35:\n    /* \"#utility.yul\":936:1074   */\n  pop\n  jump\t// out\n    /* \"#utility.yul\":1080:1239   */\ntag_18:\n    /* \"#utility.yul\":1145:1150   */\n  0x00\n    /* \"#utility.yul\":1176:1182   */\n  dup2\n    /* \"#utility.yul\":1170:1183   */\n  mload\n    /* \"#utility.yul\":1161:1183   */\n  swap1\n  pop\n    /* \"#utility.yul\":1192:1233   */\n  tag_37\n    /* \"#utility.yul\":1227:1232   */\n  dup2\n    /* \"#utility.yul\":1192:1233   */\n  tag_17\n  jump\t// in\ntag_37:\n    /* \"#utility.yul\":1080:1239   */\n  swap3\n  swap2\n  pop\n  pop\n  jump\t// out\n    /* \"#utility.yul\":1245:1768   */\ntag_3:\n    /* \"#utility.yul\":1332:1338   */\n  0x00\n    /* \"#utility.yul\":1340:1346   */\n  dup1\n    /* \"#utility.yul\":1389:1391   */\n  0x40\n    /* \"#utility.yul\":1377:1386   */\n  dup4\n    /* \"#utility.yul\":1368:1375   */\n  dup6\n    /* \"#utility.yul\":1364:1387   */\n  sub\n    /* \"#utility.yul\":1360:1392   */\n  slt\n    /* \"#utility.yul\":1357:1476   */\n  iszero\n  tag_39\n  jumpi\n    /* \"#utility.yul\":1395:1474   */\n  tag_40\n  tag_10\n  jump\t// in\ntag_40:\n    /* \"#utility.yul\":1357:1476   */\ntag_39:\n    /* \"#utility.yul\":1515:1516   */\n  0x00\n    /* \"#utility.yul\":1540:1604   */\n  tag_41\n    /* \"#utility.yul\":1596:1603   */\n  dup6\n    /* \"#utility.yul\":1587:1593   */\n  dup3\n    /* \"#utility.yul\":1576:1585   */\n  dup7\n    /* \"#utility.yul\":1572:1594   */\n  add\n    /* \"#utility.yul\":1540:1604   */\n  tag_14\n  jump\t// in\ntag_41:\n    /* \"#utility.yul\":1530:1604   */\n  swap3\n  pop\n    /* \"#utility.yul\":1486:1614   */\n  pop\n    /* \"#utility.yul\":1653:1655   */\n  0x20\n    /* \"#utility.yul\":1679:1751   */\n  tag_42\n    /* \"#utility.yul\":1743:1750   */\n  dup6\n    /* \"#utility.yul\":1734:1740   */\n  dup3\n    /* \"#utility.yul\":1723:1732   */\n  dup7\n    /* \"#utility.yul\":1719:1741   */\n  add\n    /* \"#utility.yul\":1679:1751   */\n  tag_18\n  jump\t// in\ntag_42:\n    /* \"#utility.yul\":1669:1751   */\n  swap2\n  pop\n    /* \"#utility.yul\":1624:1761   */\n  pop\n    /* \"#utility.yul\":1245:1768   */\n  swap3\n  pop\n  swap3\n  swap1\n  pop\n  jump\t// out\n    /* \"#utility.yul\":1774:1954   */\ntag_19:\n    /* \"#utility.yul\":1822:1899   */\n  0x4e487b7100000000000000000000000000000000000000000000000000000000\n    /* \"#utility.yul\":1819:1820   */\n  0x00\n    /* \"#utility.yul\":1812:1900   */\n  mstore\n    /* \"#utility.yul\":1919:1923   */\n  0x11\n    /* \"#utility.yul\":1916:1917   */\n  0x04\n    /* \"#utility.yul\":1909:1924   */\n  mstore\n    /* \"#utility.yul\":1943:1947   */\n  0x24\n    /* \"#utility.yul\":1940:1941   */\n  0x00\n    /* \"#utility.yul\":1933:1948   */\n  revert\n    /* \"#utility.yul\":1960:2151   */\ntag_7:\n    /* \"#utility.yul\":2000:2003   */\n  0x00\n    /* \"#utility.yul\":2019:2039   */\n  tag_45\n    /* \"#utility.yul\":2037:2038   */\n  dup3\n    /* \"#utility.yul\":2019:2039   */\n  tag_12\n  jump\t// in\ntag_45:\n    /* \"#utility.yul\":2014:2039   */\n  swap2\n  pop\n    /* \"#utility.yul\":2053:2073   */\n  tag_46\n    /* \"#utility.yul\":2071:2072   */\n  dup4\n    /* \"#utility.yul\":2053:2073   */\n  tag_12\n  jump\t// in\ntag_46:\n    /* \"#utility.yul\":2048:2073   */\n  swap3\n  pop\n    /* \"#utility.yul\":2096:2097   */\n  dup3\n    /* \"#utility.yul\":2093:2094   */\n  dup3\n    /* \"#utility.yul\":2089:2098   */\n  add\n    /* \"#utility.yul\":2082:2098   */\n  swap1\n  pop\n    /* \"#utility.yul\":2117:2120   */\n  dup1\n    /* \"#utility.yul\":2114:2115   */\n  dup3\n    /* \"#utility.yul\":2111:2121   */\n  gt\n    /* \"#utility.yul\":2108:2144   */\n  iszero\n  tag_47\n  jumpi\n    /* \"#utility.yul\":2124:2142   */\n  tag_48\n  tag_19\n  jump\t// in\ntag_48:\n    /* \"#utility.yul\":2108:2144   */\ntag_47:\n    /* \"#utility.yul\":1960:2151   */\n  swap3\n  swap2\n  pop\n  pop\n  jump\t// out\n    /* \"\\xd0\\xa0\\xd0\\xb0\\xd0\\xb1\\xd0\\xbe\\xd1\\x87\\xd0\\xb8\\xd0\\xb9 \\xd1\\x81\\xd1\\x82\\xd0\\xbe\\xd0\\xbb/ETH projects/Open Auction/open_auction/auction.sol\":60:2431  contract SimpleAuction{... */\ntag_8:\n  dataSize(sub_0)\n  dup1\n  dataOffset(sub_0)\n  0x00\n  codecopy\n  0x00\n  return\nstop\n\nsub_0: assembly {\n        /* \"\\xd0\\xa0\\xd0\\xb0\\xd0\\xb1\\xd0\\xbe\\xd1\\x87\\xd0\\xb8\\xd0\\xb9 \\xd1\\x81\\xd1\\x82\\xd0\\xbe\\xd0\\xbb/ETH projects/Open Auction/open_auction/auction.sol\":60:2431  contract SimpleAuction{... */\n      mstore(0x40, 0x80)\n      jumpi(tag_1, lt(calldatasize, 0x04))\n      shr(0xe0, calldataload(0x00))\n      dup1\n      0x1998aeef\n      eq\n      tag_2\n      jumpi\n      dup1\n      0x38af3eed\n      eq\n      tag_3\n      jumpi\n      dup1\n      0x3ccfd60b\n      eq\n      tag_4\n      jumpi\n      dup1\n      0x4b449cba\n      eq\n      tag_5\n      jumpi\n      dup1\n      0x91f90157\n      eq\n      tag_6\n      jumpi\n      dup1\n      0xd57bde79\n      eq\n      tag_7\n      jumpi\n    tag_1:\n      0x00\n      dup1\n      revert\n        /* \"\\xd0\\xa0\\xd0\\xb0\\xd0\\xb1\\xd0\\xbe\\xd1\\x87\\xd0\\xb8\\xd0\\xb9 \\xd1\\x81\\xd1\\x82\\xd0\\xbe\\xd0\\xbb/ETH projects/Open Auction/open_auction/auction.sol\":1275:1855  function bid() external payable {... */\n    tag_2:\n      tag_8\n      tag_9\n      jump\t// in\n    tag_8:\n      stop\n        /* \"\\xd0\\xa0\\xd0\\xb0\\xd0\\xb1\\xd0\\xbe\\xd1\\x87\\xd0\\xb8\\xd0\\xb9 \\xd1\\x81\\xd1\\x82\\xd0\\xbe\\xd0\\xbb/ETH projects/Open Auction/open_auction/auction.sol\":88:122  address payable public beneficiary */\n    tag_3:\n      callvalue\n      dup1\n      iszero\n      tag_10\n      jumpi\n      0x00\n      dup1\n      revert\n    tag_10:\n      pop\n      tag_11\n      tag_12\n      jump\t// in\n    tag_11:\n      mload(0x40)\n      tag_13\n      swap2\n      swap1\n      tag_14\n      jump\t// in\n    tag_13:\n      mload(0x40)\n      dup1\n      swap2\n      sub\n      swap1\n      return\n        /* \"\\xd0\\xa0\\xd0\\xb0\\xd0\\xb1\\xd0\\xbe\\xd1\\x87\\xd0\\xb8\\xd0\\xb9 \\xd1\\x81\\xd1\\x82\\xd0\\xbe\\xd0\\xbb/ETH projects/Open Auction/open_auction/auction.sol\":1897:2429  function withdraw() external returns (bool) {... */\n    tag_4:\n      callvalue\n      dup1\n      iszero\n      tag_15\n      jumpi\n      0x00\n      dup1\n      revert\n    tag_15:\n      pop\n      tag_16\n      tag_17\n      jump\t// in\n    tag_16:\n      mload(0x40)\n      tag_18\n      swap2\n      swap1\n      tag_19\n      jump\t// in\n    tag_18:\n      mload(0x40)\n      dup1\n      swap2\n      sub\n      swap1\n      return\n        /* \"\\xd0\\xa0\\xd0\\xb0\\xd0\\xb1\\xd0\\xbe\\xd1\\x87\\xd0\\xb8\\xd0\\xb9 \\xd1\\x81\\xd1\\x82\\xd0\\xbe\\xd0\\xbb/ETH projects/Open Auction/open_auction/auction.sol\":128:154  uint public auctionEndTime */\n    tag_5:\n      callvalue\n      dup1\n      iszero\n      tag_20\n      jumpi\n      0x00\n      dup1\n      revert\n    tag_20:\n      pop\n      tag_21\n      tag_22\n      jump\t// in\n    tag_21:\n      mload(0x40)\n      tag_23\n      swap2\n      swap1\n      tag_24\n      jump\t// in\n    tag_23:\n      mload(0x40)\n      dup1\n      swap2\n      sub\n      swap1\n      return\n        /* \"\\xd0\\xa0\\xd0\\xb0\\xd0\\xb1\\xd0\\xbe\\xd1\\x87\\xd0\\xb8\\xd0\\xb9 \\xd1\\x81\\xd1\\x82\\xd0\\xbe\\xd0\\xbb/ETH projects/Open Auction/open_auction/auction.sol\":201:229  address public highestBidder */\n    tag_6:\n      callvalue\n      dup1\n      iszero\n      tag_25\n      jumpi\n      0x00\n      dup1\n      revert\n    tag_25:\n      pop\n      tag_26\n      tag_27\n      jump\t// in\n    tag_26:\n      mload(0x40)\n      tag_28\n      swap2\n      swap1\n      tag_29\n      jump\t// in\n    tag_28:\n      mload(0x40)\n      dup1\n      swap2\n      sub\n      swap1\n      return\n        /* \"\\xd0\\xa0\\xd0\\xb0\\xd0\\xb1\\xd0\\xbe\\xd1\\x87\\xd0\\xb8\\xd0\\xb9 \\xd1\\x81\\xd1\\x82\\xd0\\xbe\\xd0\\xbb/ETH projects/Open Auction/open_auction/auction.sol\":235:257  uint public highestBid */\n    tag_7:\n      callvalue\n      dup1\n      iszero\n      tag_30\n      jumpi\n      0x00\n      dup1\n      revert\n    tag_30:\n      pop\n      tag_31\n      tag_32\n      jump\t// in\n    tag_31:\n      mload(0x40)\n      tag_33\n      swap2\n      swap1\n      tag_24\n      jump\t// in\n    tag_33:\n      mload(0x40)\n      dup1\n      swap2\n      sub\n      swap1\n      return\n        /* \"\\xd0\\xa0\\xd0\\xb0\\xd0\\xb1\\xd0\\xbe\\xd1\\x87\\xd0\\xb8\\xd0\\xb9 \\xd1\\x81\\xd1\\x82\\xd0\\xbe\\xd0\\xbb/ETH projects/Open Auction/open_auction/auction.sol\":1275:1855  function bid() external payable {... */\n    tag_9:\n        /* \"\\xd0\\xa0\\xd0\\xb0\\xd0\\xb1\\xd0\\xbe\\xd1\\x87\\xd0\\xb8\\xd0\\xb9 \\xd1\\x81\\xd1\\x82\\xd0\\xbe\\xd0\\xbb/ETH projects/Open Auction/open_auction/auction.sol\":1507:1521  auctionEndTime */\n      sload(0x01)\n        /* \"\\xd0\\xa0\\xd0\\xb0\\xd0\\xb1\\xd0\\xbe\\xd1\\x87\\xd0\\xb8\\xd0\\xb9 \\xd1\\x81\\xd1\\x82\\xd0\\xbe\\xd0\\xbb/ETH projects/Open Auction/open_auction/auction.sol\":1489:1504  block.timestamp */\n      timestamp\n        /* \"\\xd0\\xa0\\xd0\\xb0\\xd0\\xb1\\xd0\\xbe\\xd1\\x87\\xd0\\xb8\\xd0\\xb9 \\xd1\\x81\\xd1\\x82\\xd0\\xbe\\xd0\\xbb/ETH projects/Open Auction/open_auction/auction.sol\":1489:1521  block.timestamp > auctionEndTime */\n      gt\n        /* \"\\xd0\\xa0\\xd0\\xb0\\xd0\\xb1\\xd0\\xbe\\xd1\\x87\\xd0\\xb8\\xd0\\xb9 \\xd1\\x81\\xd1\\x82\\xd0\\xbe\\xd0\\xbb/ETH projects/Open Auction/open_auction/auction.sol\":1485:1551  if (block.timestamp > auctionEndTime) revert AuctionAlreadyEnded() */\n      iszero\n      tag_35\n      jumpi\n        /* \"\\xd0\\xa0\\xd0\\xb0\\xd0\\xb1\\xd0\\xbe\\xd1\\x87\\xd0\\xb8\\xd0\\xb9 \\xd1\\x81\\xd1\\x82\\xd0\\xbe\\xd0\\xbb/ETH projects/Open Auction/open_auction/auction.sol\":1530:1551  AuctionAlreadyEnded() */\n      mload(0x40)\n      0xd02e774d00000000000000000000000000000000000000000000000000000000\n      dup2\n      mstore\n      0x04\n      add\n      mload(0x40)\n      dup1\n      swap2\n      sub\n      swap1\n      revert\n        /* \"\\xd0\\xa0\\xd0\\xb0\\xd0\\xb1\\xd0\\xbe\\xd1\\x87\\xd0\\xb8\\xd0\\xb9 \\xd1\\x81\\xd1\\x82\\xd0\\xbe\\xd0\\xbb/ETH projects/Open Auction/open_auction/auction.sol\":1485:1551  if (block.timestamp > auctionEndTime) revert AuctionAlreadyEnded() */\n    tag_35:\n        /* \"\\xd0\\xa0\\xd0\\xb0\\xd0\\xb1\\xd0\\xbe\\xd1\\x87\\xd0\\xb8\\xd0\\xb9 \\xd1\\x81\\xd1\\x82\\xd0\\xbe\\xd0\\xbb/ETH projects/Open Auction/open_auction/auction.sol\":1578:1588  highestBid */\n      sload(0x03)\n        /* \"\\xd0\\xa0\\xd0\\xb0\\xd0\\xb1\\xd0\\xbe\\xd1\\x87\\xd0\\xb8\\xd0\\xb9 \\xd1\\x81\\xd1\\x82\\xd0\\xbe\\xd0\\xbb/ETH projects/Open Auction/open_auction/auction.sol\":1565:1574  msg.value */\n      callvalue\n        /* \"\\xd0\\xa0\\xd0\\xb0\\xd0\\xb1\\xd0\\xbe\\xd1\\x87\\xd0\\xb8\\xd0\\xb9 \\xd1\\x81\\xd1\\x82\\xd0\\xbe\\xd0\\xbb/ETH projects/Open Auction/open_auction/auction.sol\":1565:1588  msg.value <= highestBid */\n      gt\n        /* \"\\xd0\\xa0\\xd0\\xb0\\xd0\\xb1\\xd0\\xbe\\xd1\\x87\\xd0\\xb8\\xd0\\xb9 \\xd1\\x81\\xd1\\x82\\xd0\\xbe\\xd0\\xbb/ETH projects/Open Auction/open_auction/auction.sol\":1561:1625  if (msg.value <= highestBid) revert BidNotHighEnough(highestBid) */\n      tag_36\n      jumpi\n        /* \"\\xd0\\xa0\\xd0\\xb0\\xd0\\xb1\\xd0\\xbe\\xd1\\x87\\xd0\\xb8\\xd0\\xb9 \\xd1\\x81\\xd1\\x82\\xd0\\xbe\\xd0\\xbb/ETH projects/Open Auction/open_auction/auction.sol\":1614:1624  highestBid */\n      sload(0x03)\n        /* \"\\xd0\\xa0\\xd0\\xb0\\xd0\\xb1\\xd0\\xbe\\xd1\\x87\\xd0\\xb8\\xd0\\xb9 \\xd1\\x81\\xd1\\x82\\xd0\\xbe\\xd0\\xbb/ETH projects/Open Auction/open_auction/auction.sol\":1597:1625  BidNotHighEnough(highestBid) */\n      mload(0x40)\n      0x4e12c1bb00000000000000000000000000000000000000000000000000000000\n      dup2\n      mstore\n      0x04\n      add\n      tag_37\n      swap2\n      swap1\n      tag_24\n      jump\t// in\n    tag_37:\n      mload(0x40)\n      dup1\n      swap2\n      sub\n      swap1\n      revert\n        /* \"\\xd0\\xa0\\xd0\\xb0\\xd0\\xb1\\xd0\\xbe\\xd1\\x87\\xd0\\xb8\\xd0\\xb9 \\xd1\\x81\\xd1\\x82\\xd0\\xbe\\xd0\\xbb/ETH projects/Open Auction/open_auction/auction.sol\":1561:1625  if (msg.value <= highestBid) revert BidNotHighEnough(highestBid) */\n    tag_36:\n        /* \"\\xd0\\xa0\\xd0\\xb0\\xd0\\xb1\\xd0\\xbe\\xd1\\x87\\xd0\\xb8\\xd0\\xb9 \\xd1\\x81\\xd1\\x82\\xd0\\xbe\\xd0\\xbb/ETH projects/Open Auction/open_auction/auction.sol\":1653:1654  0 */\n      0x00\n        /* \"\\xd0\\xa0\\xd0\\xb0\\xd0\\xb1\\xd0\\xbe\\xd1\\x87\\xd0\\xb8\\xd0\\xb9 \\xd1\\x81\\xd1\\x82\\xd0\\xbe\\xd0\\xbb/ETH projects/Open Auction/open_auction/auction.sol\":1639:1649  highestBid */\n      sload(0x03)\n        /* \"\\xd0\\xa0\\xd0\\xb0\\xd0\\xb1\\xd0\\xbe\\xd1\\x87\\xd0\\xb8\\xd0\\xb9 \\xd1\\x81\\xd1\\x82\\xd0\\xbe\\xd0\\xbb/ETH projects/Open Auction/open_auction/auction.sol\":1639:1654  highestBid != 0 */\n      eq\n        /* \"\\xd0\\xa0\\xd0\\xb0\\xd0\\xb1\\xd0\\xbe\\xd1\\x87\\xd0\\xb8\\xd0\\xb9 \\xd1\\x81\\xd1\\x82\\xd0\\xbe\\xd0\\xbb/ETH projects/Open Auction/open_auction/auction.sol\":1635:1723  if (highestBid != 0){... */\n      tag_38\n      jumpi\n        /* \"\\xd0\\xa0\\xd0\\xb0\\xd0\\xb1\\xd0\\xbe\\xd1\\x87\\xd0\\xb8\\xd0\\xb9 \\xd1\\x81\\xd1\\x82\\xd0\\xbe\\xd0\\xbb/ETH projects/Open Auction/open_auction/auction.sol\":1702:1712  highestBid */\n      sload(0x03)\n        /* \"\\xd0\\xa0\\xd0\\xb0\\xd0\\xb1\\xd0\\xbe\\xd1\\x87\\xd0\\xb8\\xd0\\xb9 \\xd1\\x81\\xd1\\x82\\xd0\\xbe\\xd0\\xbb/ETH projects/Open Auction/open_auction/auction.sol\":1669:1683  pendingReturns */\n      0x04\n        /* \"\\xd0\\xa0\\xd0\\xb0\\xd0\\xb1\\xd0\\xbe\\xd1\\x87\\xd0\\xb8\\xd0\\xb9 \\xd1\\x81\\xd1\\x82\\xd0\\xbe\\xd0\\xbb/ETH projects/Open Auction/open_auction/auction.sol\":1669:1698  pendingReturns[highestBidder] */\n      0x00\n        /* \"\\xd0\\xa0\\xd0\\xb0\\xd0\\xb1\\xd0\\xbe\\xd1\\x87\\xd0\\xb8\\xd0\\xb9 \\xd1\\x81\\xd1\\x82\\xd0\\xbe\\xd0\\xbb/ETH projects/Open Auction/open_auction/auction.sol\":1684:1697  highestBidder */\n      0x02\n      0x00\n      swap1\n      sload\n      swap1\n      0x0100\n      exp\n      swap1\n      div\n      0xffffffffffffffffffffffffffffffffffffffff\n      and\n        /* \"\\xd0\\xa0\\xd0\\xb0\\xd0\\xb1\\xd0\\xbe\\xd1\\x87\\xd0\\xb8\\xd0\\xb9 \\xd1\\x81\\xd1\\x82\\xd0\\xbe\\xd0\\xbb/ETH projects/Open Auction/open_auction/auction.sol\":1669:1698  pendingReturns[highestBidder] */\n      0xffffffffffffffffffffffffffffffffffffffff\n      and\n      0xffffffffffffffffffffffffffffffffffffffff\n      and\n      dup2\n      mstore\n      0x20\n      add\n      swap1\n      dup2\n      mstore\n      0x20\n      add\n      0x00\n      keccak256\n      0x00\n        /* \"\\xd0\\xa0\\xd0\\xb0\\xd0\\xb1\\xd0\\xbe\\xd1\\x87\\xd0\\xb8\\xd0\\xb9 \\xd1\\x81\\xd1\\x82\\xd0\\xbe\\xd0\\xbb/ETH projects/Open Auction/open_auction/auction.sol\":1669:1712  pendingReturns[highestBidder] += highestBid */\n      dup3\n      dup3\n      sload\n      tag_39\n      swap2\n      swap1\n      tag_40\n      jump\t// in\n    tag_39:\n      swap3\n      pop\n      pop\n      dup2\n      swap1\n      sstore\n      pop\n        /* \"\\xd0\\xa0\\xd0\\xb0\\xd0\\xb1\\xd0\\xbe\\xd1\\x87\\xd0\\xb8\\xd0\\xb9 \\xd1\\x81\\xd1\\x82\\xd0\\xbe\\xd0\\xbb/ETH projects/Open Auction/open_auction/auction.sol\":1635:1723  if (highestBid != 0){... */\n    tag_38:\n        /* \"\\xd0\\xa0\\xd0\\xb0\\xd0\\xb1\\xd0\\xbe\\xd1\\x87\\xd0\\xb8\\xd0\\xb9 \\xd1\\x81\\xd1\\x82\\xd0\\xbe\\xd0\\xbb/ETH projects/Open Auction/open_auction/auction.sol\":1748:1758  msg.sender */\n      caller\n        /* \"\\xd0\\xa0\\xd0\\xb0\\xd0\\xb1\\xd0\\xbe\\xd1\\x87\\xd0\\xb8\\xd0\\xb9 \\xd1\\x81\\xd1\\x82\\xd0\\xbe\\xd0\\xbb/ETH projects/Open Auction/open_auction/auction.sol\":1732:1745  highestBidder */\n      0x02\n      0x00\n        /* \"\\xd0\\xa0\\xd0\\xb0\\xd0\\xb1\\xd0\\xbe\\xd1\\x87\\xd0\\xb8\\xd0\\xb9 \\xd1\\x81\\xd1\\x82\\xd0\\xbe\\xd0\\xbb/ETH projects/Open Auction/open_auction/auction.sol\":1732:1758  highestBidder = msg.sender */\n      0x0100\n      exp\n      dup2\n      sload\n      dup2\n      0xffffffffffffffffffffffffffffffffffffffff\n      mul\n      not\n      and\n      swap1\n      dup4\n      0xffffffffffffffffffffffffffffffffffffffff\n      and\n      mul\n      or\n      swap1\n      sstore\n      pop\n        /* \"\\xd0\\xa0\\xd0\\xb0\\xd0\\xb1\\xd0\\xbe\\xd1\\x87\\xd0\\xb8\\xd0\\xb9 \\xd1\\x81\\xd1\\x82\\xd0\\xbe\\xd0\\xbb/ETH projects/Open Auction/open_auction/auction.sol\":1781:1790  msg.value */\n      callvalue\n        /* \"\\xd0\\xa0\\xd0\\xb0\\xd0\\xb1\\xd0\\xbe\\xd1\\x87\\xd0\\xb8\\xd0\\xb9 \\xd1\\x81\\xd1\\x82\\xd0\\xbe\\xd0\\xbb/ETH projects/Open Auction/open_auction/auction.sol\":1768:1778  highestBid */\n      0x03\n        /* \"\\xd0\\xa0\\xd0\\xb0\\xd0\\xb1\\xd0\\xbe\\xd1\\x87\\xd0\\xb8\\xd0\\xb9 \\xd1\\x81\\xd1\\x82\\xd0\\xbe\\xd0\\xbb/ETH projects/Open Auction/open_auction/auction.sol\":1768:1790  highestBid = msg.value */\n      dup2\n      swap1\n      sstore\n      pop\n        /* \"\\xd0\\xa0\\xd0\\xb0\\xd0\\xb1\\xd0\\xbe\\xd1\\x87\\xd0\\xb8\\xd0\\xb9 \\xd1\\x81\\xd1\\x82\\xd0\\xbe\\xd0\\xbb/ETH projects/Open Auction/open_auction/auction.sol\":1805:1847  HighestBidIncreased(msg.sender, msg.value) */\n      0xf4757a49b326036464bec6fe419a4ae38c8a02ce3e68bf0809674f6aab8ad300\n        /* \"\\xd0\\xa0\\xd0\\xb0\\xd0\\xb1\\xd0\\xbe\\xd1\\x87\\xd0\\xb8\\xd0\\xb9 \\xd1\\x81\\xd1\\x82\\xd0\\xbe\\xd0\\xbb/ETH projects/Open Auction/open_auction/auction.sol\":1825:1835  msg.sender */\n      caller\n        /* \"\\xd0\\xa0\\xd0\\xb0\\xd0\\xb1\\xd0\\xbe\\xd1\\x87\\xd0\\xb8\\xd0\\xb9 \\xd1\\x81\\xd1\\x82\\xd0\\xbe\\xd0\\xbb/ETH projects/Open Auction/open_auction/auction.sol\":1837:1846  msg.value */\n      callvalue\n        /* \"\\xd0\\xa0\\xd0\\xb0\\xd0\\xb1\\xd0\\xbe\\xd1\\x87\\xd0\\xb8\\xd0\\xb9 \\xd1\\x81\\xd1\\x82\\xd0\\xbe\\xd0\\xbb/ETH projects/Open Auction/open_auction/auction.sol\":1805:1847  HighestBidIncreased(msg.sender, msg.value) */\n      mload(0x40)\n      tag_41\n      swap3\n      swap2\n      swap1\n      tag_42\n      jump\t// in\n    tag_41:\n      mload(0x40)\n      dup1\n      swap2\n      sub\n      swap1\n      log1\n        /* \"\\xd0\\xa0\\xd0\\xb0\\xd0\\xb1\\xd0\\xbe\\xd1\\x87\\xd0\\xb8\\xd0\\xb9 \\xd1\\x81\\xd1\\x82\\xd0\\xbe\\xd0\\xbb/ETH projects/Open Auction/open_auction/auction.sol\":1275:1855  function bid() external payable {... */\n      jump\t// out\n        /* \"\\xd0\\xa0\\xd0\\xb0\\xd0\\xb1\\xd0\\xbe\\xd1\\x87\\xd0\\xb8\\xd0\\xb9 \\xd1\\x81\\xd1\\x82\\xd0\\xbe\\xd0\\xbb/ETH projects/Open Auction/open_auction/auction.sol\":88:122  address payable public beneficiary */\n    tag_12:\n      0x00\n      dup1\n      sload\n      swap1\n      0x0100\n      exp\n      swap1\n      div\n      0xffffffffffffffffffffffffffffffffffffffff\n      and\n      dup2\n      jump\t// out\n        /* \"\\xd0\\xa0\\xd0\\xb0\\xd0\\xb1\\xd0\\xbe\\xd1\\x87\\xd0\\xb8\\xd0\\xb9 \\xd1\\x81\\xd1\\x82\\xd0\\xbe\\xd0\\xbb/ETH projects/Open Auction/open_auction/auction.sol\":1897:2429  function withdraw() external returns (bool) {... */\n    tag_17:\n        /* \"\\xd0\\xa0\\xd0\\xb0\\xd0\\xb1\\xd0\\xbe\\xd1\\x87\\xd0\\xb8\\xd0\\xb9 \\xd1\\x81\\xd1\\x82\\xd0\\xbe\\xd0\\xbb/ETH projects/Open Auction/open_auction/auction.sol\":1935:1939  bool */\n      0x00\n        /* \"\\xd0\\xa0\\xd0\\xb0\\xd0\\xb1\\xd0\\xbe\\xd1\\x87\\xd0\\xb8\\xd0\\xb9 \\xd1\\x81\\xd1\\x82\\xd0\\xbe\\xd0\\xbb/ETH projects/Open Auction/open_auction/auction.sol\":1951:1962  uint amount */\n      dup1\n        /* \"\\xd0\\xa0\\xd0\\xb0\\xd0\\xb1\\xd0\\xbe\\xd1\\x87\\xd0\\xb8\\xd0\\xb9 \\xd1\\x81\\xd1\\x82\\xd0\\xbe\\xd0\\xbb/ETH projects/Open Auction/open_auction/auction.sol\":1965:1979  pendingReturns */\n      0x04\n        /* \"\\xd0\\xa0\\xd0\\xb0\\xd0\\xb1\\xd0\\xbe\\xd1\\x87\\xd0\\xb8\\xd0\\xb9 \\xd1\\x81\\xd1\\x82\\xd0\\xbe\\xd0\\xbb/ETH projects/Open Auction/open_auction/auction.sol\":1965:1991  pendingReturns[msg.sender] */\n      0x00\n        /* \"\\xd0\\xa0\\xd0\\xb0\\xd0\\xb1\\xd0\\xbe\\xd1\\x87\\xd0\\xb8\\xd0\\xb9 \\xd1\\x81\\xd1\\x82\\xd0\\xbe\\xd0\\xbb/ETH projects/Open Auction/open_auction/auction.sol\":1980:1990  msg.sender */\n      caller\n        /* \"\\xd0\\xa0\\xd0\\xb0\\xd0\\xb1\\xd0\\xbe\\xd1\\x87\\xd0\\xb8\\xd0\\xb9 \\xd1\\x81\\xd1\\x82\\xd0\\xbe\\xd0\\xbb/ETH projects/Open Auction/open_auction/auction.sol\":1965:1991  pendingReturns[msg.sender] */\n      0xffffffffffffffffffffffffffffffffffffffff\n      and\n      0xffffffffffffffffffffffffffffffffffffffff\n      and\n      dup2\n      mstore\n      0x20\n      add\n      swap1\n      dup2\n      mstore\n      0x20\n      add\n      0x00\n      keccak256\n      sload\n        /* \"\\xd0\\xa0\\xd0\\xb0\\xd0\\xb1\\xd0\\xbe\\xd1\\x87\\xd0\\xb8\\xd0\\xb9 \\xd1\\x81\\xd1\\x82\\xd0\\xbe\\xd0\\xbb/ETH projects/Open Auction/open_auction/auction.sol\":1951:1991  uint amount = pendingReturns[msg.sender] */\n      swap1\n      pop\n        /* \"\\xd0\\xa0\\xd0\\xb0\\xd0\\xb1\\xd0\\xbe\\xd1\\x87\\xd0\\xb8\\xd0\\xb9 \\xd1\\x81\\xd1\\x82\\xd0\\xbe\\xd0\\xbb/ETH projects/Open Auction/open_auction/auction.sol\":2014:2015  0 */\n      0x00\n        /* \"\\xd0\\xa0\\xd0\\xb0\\xd0\\xb1\\xd0\\xbe\\xd1\\x87\\xd0\\xb8\\xd0\\xb9 \\xd1\\x81\\xd1\\x82\\xd0\\xbe\\xd0\\xbb/ETH projects/Open Auction/open_auction/auction.sol\":2005:2011  amount */\n      dup2\n        /* \"\\xd0\\xa0\\xd0\\xb0\\xd0\\xb1\\xd0\\xbe\\xd1\\x87\\xd0\\xb8\\xd0\\xb9 \\xd1\\x81\\xd1\\x82\\xd0\\xbe\\xd0\\xbb/ETH projects/Open Auction/open_auction/auction.sol\":2005:2015  amount > 0 */\n      gt\n        /* \"\\xd0\\xa0\\xd0\\xb0\\xd0\\xb1\\xd0\\xbe\\xd1\\x87\\xd0\\xb8\\xd0\\xb9 \\xd1\\x81\\xd1\\x82\\xd0\\xbe\\xd0\\xbb/ETH projects/Open Auction/open_auction/auction.sol\":2001:2402  if (amount > 0){... */\n      iszero\n      tag_44\n      jumpi\n        /* \"\\xd0\\xa0\\xd0\\xb0\\xd0\\xb1\\xd0\\xbe\\xd1\\x87\\xd0\\xb8\\xd0\\xb9 \\xd1\\x81\\xd1\\x82\\xd0\\xbe\\xd0\\xbb/ETH projects/Open Auction/open_auction/auction.sol\":2059:2060  0 */\n      0x00\n        /* \"\\xd0\\xa0\\xd0\\xb0\\xd0\\xb1\\xd0\\xbe\\xd1\\x87\\xd0\\xb8\\xd0\\xb9 \\xd1\\x81\\xd1\\x82\\xd0\\xbe\\xd0\\xbb/ETH projects/Open Auction/open_auction/auction.sol\":2030:2044  pendingReturns */\n      0x04\n        /* \"\\xd0\\xa0\\xd0\\xb0\\xd0\\xb1\\xd0\\xbe\\xd1\\x87\\xd0\\xb8\\xd0\\xb9 \\xd1\\x81\\xd1\\x82\\xd0\\xbe\\xd0\\xbb/ETH projects/Open Auction/open_auction/auction.sol\":2030:2056  pendingReturns[msg.sender] */\n      0x00\n        /* \"\\xd0\\xa0\\xd0\\xb0\\xd0\\xb1\\xd0\\xbe\\xd1\\x87\\xd0\\xb8\\xd0\\xb9 \\xd1\\x81\\xd1\\x82\\xd0\\xbe\\xd0\\xbb/ETH projects/Open Auction/open_auction/auction.sol\":2045:2055  msg.sender */\n      caller\n        /* \"\\xd0\\xa0\\xd0\\xb0\\xd0\\xb1\\xd0\\xbe\\xd1\\x87\\xd0\\xb8\\xd0\\xb9 \\xd1\\x81\\xd1\\x82\\xd0\\xbe\\xd0\\xbb/ETH projects/Open Auction/open_auction/auction.sol\":2030:2056  pendingReturns[msg.sender] */\n      0xffffffffffffffffffffffffffffffffffffffff\n      and\n      0xffffffffffffffffffffffffffffffffffffffff\n      and\n      dup2\n      mstore\n      0x20\n      add\n      swap1\n      dup2\n      mstore\n      0x20\n      add\n      0x00\n      keccak256\n        /* \"\\xd0\\xa0\\xd0\\xb0\\xd0\\xb1\\xd0\\xbe\\xd1\\x87\\xd0\\xb8\\xd0\\xb9 \\xd1\\x81\\xd1\\x82\\xd0\\xbe\\xd0\\xbb/ETH projects/Open Auction/open_auction/auction.sol\":2030:2060  pendingReturns[msg.sender] = 0 */\n      dup2\n      swap1\n      sstore\n      pop\n        /* \"\\xd0\\xa0\\xd0\\xb0\\xd0\\xb1\\xd0\\xbe\\xd1\\x87\\xd0\\xb8\\xd0\\xb9 \\xd1\\x81\\xd1\\x82\\xd0\\xbe\\xd0\\xbb/ETH projects/Open Auction/open_auction/auction.sol\":2268:2278  msg.sender */\n      caller\n        /* \"\\xd0\\xa0\\xd0\\xb0\\xd0\\xb1\\xd0\\xbe\\xd1\\x87\\xd0\\xb8\\xd0\\xb9 \\xd1\\x81\\xd1\\x82\\xd0\\xbe\\xd0\\xbb/ETH projects/Open Auction/open_auction/auction.sol\":2260:2284  payable(msg.sender).send */\n      0xffffffffffffffffffffffffffffffffffffffff\n      and\n        /* \"\\xd0\\xa0\\xd0\\xb0\\xd0\\xb1\\xd0\\xbe\\xd1\\x87\\xd0\\xb8\\xd0\\xb9 \\xd1\\x81\\xd1\\x82\\xd0\\xbe\\xd0\\xbb/ETH projects/Open Auction/open_auction/auction.sol\":2260:2292  payable(msg.sender).send(amount) */\n      0x08fc\n        /* \"\\xd0\\xa0\\xd0\\xb0\\xd0\\xb1\\xd0\\xbe\\xd1\\x87\\xd0\\xb8\\xd0\\xb9 \\xd1\\x81\\xd1\\x82\\xd0\\xbe\\xd0\\xbb/ETH projects/Open Auction/open_auction/auction.sol\":2285:2291  amount */\n      dup3\n        /* \"\\xd0\\xa0\\xd0\\xb0\\xd0\\xb1\\xd0\\xbe\\xd1\\x87\\xd0\\xb8\\xd0\\xb9 \\xd1\\x81\\xd1\\x82\\xd0\\xbe\\xd0\\xbb/ETH projects/Open Auction/open_auction/auction.sol\":2260:2292  payable(msg.sender).send(amount) */\n      swap1\n      dup2\n      iszero\n      mul\n      swap1\n      mload(0x40)\n      0x00\n      mload(0x40)\n      dup1\n      dup4\n      sub\n      dup2\n      dup6\n      dup9\n      dup9\n      call\n      swap4\n      pop\n      pop\n      pop\n      pop\n        /* \"\\xd0\\xa0\\xd0\\xb0\\xd0\\xb1\\xd0\\xbe\\xd1\\x87\\xd0\\xb8\\xd0\\xb9 \\xd1\\x81\\xd1\\x82\\xd0\\xbe\\xd0\\xbb/ETH projects/Open Auction/open_auction/auction.sol\":2256:2391  if(!payable(msg.sender).send(amount)){... */\n      tag_46\n      jumpi\n        /* \"\\xd0\\xa0\\xd0\\xb0\\xd0\\xb1\\xd0\\xbe\\xd1\\x87\\xd0\\xb8\\xd0\\xb9 \\xd1\\x81\\xd1\\x82\\xd0\\xbe\\xd0\\xbb/ETH projects/Open Auction/open_auction/auction.sol\":2340:2346  amount */\n      dup1\n        /* \"\\xd0\\xa0\\xd0\\xb0\\xd0\\xb1\\xd0\\xbe\\xd1\\x87\\xd0\\xb8\\xd0\\xb9 \\xd1\\x81\\xd1\\x82\\xd0\\xbe\\xd0\\xbb/ETH projects/Open Auction/open_auction/auction.sol\":2311:2325  pendingReturns */\n      0x04\n        /* \"\\xd0\\xa0\\xd0\\xb0\\xd0\\xb1\\xd0\\xbe\\xd1\\x87\\xd0\\xb8\\xd0\\xb9 \\xd1\\x81\\xd1\\x82\\xd0\\xbe\\xd0\\xbb/ETH projects/Open Auction/open_auction/auction.sol\":2311:2337  pendingReturns[msg.sender] */\n      0x00\n        /* \"\\xd0\\xa0\\xd0\\xb0\\xd0\\xb1\\xd0\\xbe\\xd1\\x87\\xd0\\xb8\\xd0\\xb9 \\xd1\\x81\\xd1\\x82\\xd0\\xbe\\xd0\\xbb/ETH projects/Open Auction/open_auction/auction.sol\":2326:2336  msg.sender */\n      caller\n        /* \"\\xd0\\xa0\\xd0\\xb0\\xd0\\xb1\\xd0\\xbe\\xd1\\x87\\xd0\\xb8\\xd0\\xb9 \\xd1\\x81\\xd1\\x82\\xd0\\xbe\\xd0\\xbb/ETH projects/Open Auction/open_auction/auction.sol\":2311:2337  pendingReturns[msg.sender] */\n      0xffffffffffffffffffffffffffffffffffffffff\n      and\n      0xffffffffffffffffffffffffffffffffffffffff\n      and\n      dup2\n      mstore\n      0x20\n      add\n      swap1\n      dup2\n      mstore\n      0x20\n      add\n      0x00\n      keccak256\n        /* \"\\xd0\\xa0\\xd0\\xb0\\xd0\\xb1\\xd0\\xbe\\xd1\\x87\\xd0\\xb8\\xd0\\xb9 \\xd1\\x81\\xd1\\x82\\xd0\\xbe\\xd0\\xbb/ETH projects/Open Auction/open_auction/auction.sol\":2311:2346  pendingReturns[msg.sender] = amount */\n      dup2\n      swap1\n      sstore\n      pop\n        /* \"\\xd0\\xa0\\xd0\\xb0\\xd0\\xb1\\xd0\\xbe\\xd1\\x87\\xd0\\xb8\\xd0\\xb9 \\xd1\\x81\\xd1\\x82\\xd0\\xbe\\xd0\\xbb/ETH projects/Open Auction/open_auction/auction.sol\":2371:2376  false */\n      0x00\n        /* \"\\xd0\\xa0\\xd0\\xb0\\xd0\\xb1\\xd0\\xbe\\xd1\\x87\\xd0\\xb8\\xd0\\xb9 \\xd1\\x81\\xd1\\x82\\xd0\\xbe\\xd0\\xbb/ETH projects/Open Auction/open_auction/auction.sol\":2364:2376  return false */\n      swap2\n      pop\n      pop\n      jump(tag_43)\n        /* \"\\xd0\\xa0\\xd0\\xb0\\xd0\\xb1\\xd0\\xbe\\xd1\\x87\\xd0\\xb8\\xd0\\xb9 \\xd1\\x81\\xd1\\x82\\xd0\\xbe\\xd0\\xbb/ETH projects/Open Auction/open_auction/auction.sol\":2256:2391  if(!payable(msg.sender).send(amount)){... */\n    tag_46:\n        /* \"\\xd0\\xa0\\xd0\\xb0\\xd0\\xb1\\xd0\\xbe\\xd1\\x87\\xd0\\xb8\\xd0\\xb9 \\xd1\\x81\\xd1\\x82\\xd0\\xbe\\xd0\\xbb/ETH projects/Open Auction/open_auction/auction.sol\":2001:2402  if (amount > 0){... */\n    tag_44:\n        /* \"\\xd0\\xa0\\xd0\\xb0\\xd0\\xb1\\xd0\\xbe\\xd1\\x87\\xd0\\xb8\\xd0\\xb9 \\xd1\\x81\\xd1\\x82\\xd0\\xbe\\xd0\\xbb/ETH projects/Open Auction/open_auction/auction.sol\":2418:2422  true */\n      0x01\n        /* \"\\xd0\\xa0\\xd0\\xb0\\xd0\\xb1\\xd0\\xbe\\xd1\\x87\\xd0\\xb8\\xd0\\xb9 \\xd1\\x81\\xd1\\x82\\xd0\\xbe\\xd0\\xbb/ETH projects/Open Auction/open_auction/auction.sol\":2411:2422  return true */\n      swap2\n      pop\n      pop\n        /* \"\\xd0\\xa0\\xd0\\xb0\\xd0\\xb1\\xd0\\xbe\\xd1\\x87\\xd0\\xb8\\xd0\\xb9 \\xd1\\x81\\xd1\\x82\\xd0\\xbe\\xd0\\xbb/ETH projects/Open Auction/open_auction/auction.sol\":1897:2429  function withdraw() external returns (bool) {... */\n    tag_43:\n      swap1\n      jump\t// out\n        /* \"\\xd0\\xa0\\xd0\\xb0\\xd0\\xb1\\xd0\\xbe\\xd1\\x87\\xd0\\xb8\\xd0\\xb9 \\xd1\\x81\\xd1\\x82\\xd0\\xbe\\xd0\\xbb/ETH projects/Open Auction/open_auction/auction.sol\":128:154  uint public auctionEndTime */\n    tag_22:\n      sload(0x01)\n      dup2\n      jump\t// out\n        /* \"\\xd0\\xa0\\xd0\\xb0\\xd0\\xb1\\xd0\\xbe\\xd1\\x87\\xd0\\xb8\\xd0\\xb9 \\xd1\\x81\\xd1\\x82\\xd0\\xbe\\xd0\\xbb/ETH projects/Open Auction/open_auction/auction.sol\":201:229  address public highestBidder */\n    tag_27:\n      0x02\n      0x00\n      swap1\n      sload\n      swap1\n      0x0100\n      exp\n      swap1\n      div\n      0xffffffffffffffffffffffffffffffffffffffff\n      and\n      dup2\n      jump\t// out\n        /* \"\\xd0\\xa0\\xd0\\xb0\\xd0\\xb1\\xd0\\xbe\\xd1\\x87\\xd0\\xb8\\xd0\\xb9 \\xd1\\x81\\xd1\\x82\\xd0\\xbe\\xd0\\xbb/ETH projects/Open Auction/open_auction/auction.sol\":235:257  uint public highestBid */\n    tag_32:\n      sload(0x03)\n      dup2\n      jump\t// out\n        /* \"#utility.yul\":7:133   */\n    tag_47:\n        /* \"#utility.yul\":44:51   */\n      0x00\n        /* \"#utility.yul\":84:126   */\n      0xffffffffffffffffffffffffffffffffffffffff\n        /* \"#utility.yul\":77:82   */\n      dup3\n        /* \"#utility.yul\":73:127   */\n      and\n        /* \"#utility.yul\":62:127   */\n      swap1\n      pop\n        /* \"#utility.yul\":7:133   */\n      swap2\n      swap1\n      pop\n      jump\t// out\n        /* \"#utility.yul\":139:243   */\n    tag_48:\n        /* \"#utility.yul\":184:191   */\n      0x00\n        /* \"#utility.yul\":213:237   */\n      tag_60\n        /* \"#utility.yul\":231:236   */\n      dup3\n        /* \"#utility.yul\":213:237   */\n      tag_47\n      jump\t// in\n    tag_60:\n        /* \"#utility.yul\":202:237   */\n      swap1\n      pop\n        /* \"#utility.yul\":139:243   */\n      swap2\n      swap1\n      pop\n      jump\t// out\n        /* \"#utility.yul\":249:391   */\n    tag_49:\n        /* \"#utility.yul\":352:384   */\n      tag_62\n        /* \"#utility.yul\":378:383   */\n      dup2\n        /* \"#utility.yul\":352:384   */\n      tag_48\n      jump\t// in\n    tag_62:\n        /* \"#utility.yul\":347:350   */\n      dup3\n        /* \"#utility.yul\":340:385   */\n      mstore\n        /* \"#utility.yul\":249:391   */\n      pop\n      pop\n      jump\t// out\n        /* \"#utility.yul\":397:651   */\n    tag_14:\n        /* \"#utility.yul\":506:510   */\n      0x00\n        /* \"#utility.yul\":544:546   */\n      0x20\n        /* \"#utility.yul\":533:542   */\n      dup3\n        /* \"#utility.yul\":529:547   */\n      add\n        /* \"#utility.yul\":521:547   */\n      swap1\n      pop\n        /* \"#utility.yul\":557:644   */\n      tag_64\n        /* \"#utility.yul\":641:642   */\n      0x00\n        /* \"#utility.yul\":630:639   */\n      dup4\n        /* \"#utility.yul\":626:643   */\n      add\n        /* \"#utility.yul\":617:623   */\n      dup5\n        /* \"#utility.yul\":557:644   */\n      tag_49\n      jump\t// in\n    tag_64:\n        /* \"#utility.yul\":397:651   */\n      swap3\n      swap2\n      pop\n      pop\n      jump\t// out\n        /* \"#utility.yul\":657:747   */\n    tag_50:\n        /* \"#utility.yul\":691:698   */\n      0x00\n        /* \"#utility.yul\":734:739   */\n      dup2\n        /* \"#utility.yul\":727:740   */\n      iszero\n        /* \"#utility.yul\":720:741   */\n      iszero\n        /* \"#utility.yul\":709:741   */\n      swap1\n      pop\n        /* \"#utility.yul\":657:747   */\n      swap2\n      swap1\n      pop\n      jump\t// out\n        /* \"#utility.yul\":753:862   */\n    tag_51:\n        /* \"#utility.yul\":834:855   */\n      tag_67\n        /* \"#utility.yul\":849:854   */\n      dup2\n        /* \"#utility.yul\":834:855   */\n      tag_50\n      jump\t// in\n    tag_67:\n        /* \"#utility.yul\":829:832   */\n      dup3\n        /* \"#utility.yul\":822:856   */\n      mstore\n        /* \"#utility.yul\":753:862   */\n      pop\n      pop\n      jump\t// out\n        /* \"#utility.yul\":868:1078   */\n    tag_19:\n        /* \"#utility.yul\":955:959   */\n      0x00\n        /* \"#utility.yul\":993:995   */\n      0x20\n        /* \"#utility.yul\":982:991   */\n      dup3\n        /* \"#utility.yul\":978:996   */\n      add\n        /* \"#utility.yul\":970:996   */\n      swap1\n      pop\n        /* \"#utility.yul\":1006:1071   */\n      tag_69\n        /* \"#utility.yul\":1068:1069   */\n      0x00\n        /* \"#utility.yul\":1057:1066   */\n      dup4\n        /* \"#utility.yul\":1053:1070   */\n      add\n        /* \"#utility.yul\":1044:1050   */\n      dup5\n        /* \"#utility.yul\":1006:1071   */\n      tag_51\n      jump\t// in\n    tag_69:\n        /* \"#utility.yul\":868:1078   */\n      swap3\n      swap2\n      pop\n      pop\n      jump\t// out\n        /* \"#utility.yul\":1084:1161   */\n    tag_52:\n        /* \"#utility.yul\":1121:1128   */\n      0x00\n        /* \"#utility.yul\":1150:1155   */\n      dup2\n        /* \"#utility.yul\":1139:1155   */\n      swap1\n      pop\n        /* \"#utility.yul\":1084:1161   */\n      swap2\n      swap1\n      pop\n      jump\t// out\n        /* \"#utility.yul\":1167:1285   */\n    tag_53:\n        /* \"#utility.yul\":1254:1278   */\n      tag_72\n        /* \"#utility.yul\":1272:1277   */\n      dup2\n        /* \"#utility.yul\":1254:1278   */\n      tag_52\n      jump\t// in\n    tag_72:\n        /* \"#utility.yul\":1249:1252   */\n      dup3\n        /* \"#utility.yul\":1242:1279   */\n      mstore\n        /* \"#utility.yul\":1167:1285   */\n      pop\n      pop\n      jump\t// out\n        /* \"#utility.yul\":1291:1513   */\n    tag_24:\n        /* \"#utility.yul\":1384:1388   */\n      0x00\n        /* \"#utility.yul\":1422:1424   */\n      0x20\n        /* \"#utility.yul\":1411:1420   */\n      dup3\n        /* \"#utility.yul\":1407:1425   */\n      add\n        /* \"#utility.yul\":1399:1425   */\n      swap1\n      pop\n        /* \"#utility.yul\":1435:1506   */\n      tag_74\n        /* \"#utility.yul\":1503:1504   */\n      0x00\n        /* \"#utility.yul\":1492:1501   */\n      dup4\n        /* \"#utility.yul\":1488:1505   */\n      add\n        /* \"#utility.yul\":1479:1485   */\n      dup5\n        /* \"#utility.yul\":1435:1506   */\n      tag_53\n      jump\t// in\n    tag_74:\n        /* \"#utility.yul\":1291:1513   */\n      swap3\n      swap2\n      pop\n      pop\n      jump\t// out\n        /* \"#utility.yul\":1519:1615   */\n    tag_54:\n        /* \"#utility.yul\":1556:1563   */\n      0x00\n        /* \"#utility.yul\":1585:1609   */\n      tag_76\n        /* \"#utility.yul\":1603:1608   */\n      dup3\n        /* \"#utility.yul\":1585:1609   */\n      tag_47\n      jump\t// in\n    tag_76:\n        /* \"#utility.yul\":1574:1609   */\n      swap1\n      pop\n        /* \"#utility.yul\":1519:1615   */\n      swap2\n      swap1\n      pop\n      jump\t// out\n        /* \"#utility.yul\":1621:1739   */\n    tag_55:\n        /* \"#utility.yul\":1708:1732   */\n      tag_78\n        /* \"#utility.yul\":1726:1731   */\n      dup2\n        /* \"#utility.yul\":1708:1732   */\n      tag_54\n      jump\t// in\n    tag_78:\n        /* \"#utility.yul\":1703:1706   */\n      dup3\n        /* \"#utility.yul\":1696:1733   */\n      mstore\n        /* \"#utility.yul\":1621:1739   */\n      pop\n      pop\n      jump\t// out\n        /* \"#utility.yul\":1745:1967   */\n    tag_29:\n        /* \"#utility.yul\":1838:1842   */\n      0x00\n        /* \"#utility.yul\":1876:1878   */\n      0x20\n        /* \"#utility.yul\":1865:1874   */\n      dup3\n        /* \"#utility.yul\":1861:1879   */\n      add\n        /* \"#utility.yul\":1853:1879   */\n      swap1\n      pop\n        /* \"#utility.yul\":1889:1960   */\n      tag_80\n        /* \"#utility.yul\":1957:1958   */\n      0x00\n        /* \"#utility.yul\":1946:1955   */\n      dup4\n        /* \"#utility.yul\":1942:1959   */\n      add\n        /* \"#utility.yul\":1933:1939   */\n      dup5\n        /* \"#utility.yul\":1889:1960   */\n      tag_55\n      jump\t// in\n    tag_80:\n        /* \"#utility.yul\":1745:1967   */\n      swap3\n      swap2\n      pop\n      pop\n      jump\t// out\n        /* \"#utility.yul\":1973:2153   */\n    tag_56:\n        /* \"#utility.yul\":2021:2098   */\n      0x4e487b7100000000000000000000000000000000000000000000000000000000\n        /* \"#utility.yul\":2018:2019   */\n      0x00\n        /* \"#utility.yul\":2011:2099   */\n      mstore\n        /* \"#utility.yul\":2118:2122   */\n      0x11\n        /* \"#utility.yul\":2115:2116   */\n      0x04\n        /* \"#utility.yul\":2108:2123   */\n      mstore\n        /* \"#utility.yul\":2142:2146   */\n      0x24\n        /* \"#utility.yul\":2139:2140   */\n      0x00\n        /* \"#utility.yul\":2132:2147   */\n      revert\n        /* \"#utility.yul\":2159:2350   */\n    tag_40:\n        /* \"#utility.yul\":2199:2202   */\n      0x00\n        /* \"#utility.yul\":2218:2238   */\n      tag_83\n        /* \"#utility.yul\":2236:2237   */\n      dup3\n        /* \"#utility.yul\":2218:2238   */\n      tag_52\n      jump\t// in\n    tag_83:\n        /* \"#utility.yul\":2213:2238   */\n      swap2\n      pop\n        /* \"#utility.yul\":2252:2272   */\n      tag_84\n        /* \"#utility.yul\":2270:2271   */\n      dup4\n        /* \"#utility.yul\":2252:2272   */\n      tag_52\n      jump\t// in\n    tag_84:\n        /* \"#utility.yul\":2247:2272   */\n      swap3\n      pop\n        /* \"#utility.yul\":2295:2296   */\n      dup3\n        /* \"#utility.yul\":2292:2293   */\n      dup3\n        /* \"#utility.yul\":2288:2297   */\n      add\n        /* \"#utility.yul\":2281:2297   */\n      swap1\n      pop\n        /* \"#utility.yul\":2316:2319   */\n      dup1\n        /* \"#utility.yul\":2313:2314   */\n      dup3\n        /* \"#utility.yul\":2310:2320   */\n      gt\n        /* \"#utility.yul\":2307:2343   */\n      iszero\n      tag_85\n      jumpi\n        /* \"#utility.yul\":2323:2341   */\n      tag_86\n      tag_56\n      jump\t// in\n    tag_86:\n        /* \"#utility.yul\":2307:2343   */\n    tag_85:\n        /* \"#utility.yul\":2159:2350   */\n      swap3\n      swap2\n      pop\n      pop\n      jump\t// out\n        /* \"#utility.yul\":2356:2688   */\n    tag_42:\n        /* \"#utility.yul\":2477:2481   */\n      0x00\n        /* \"#utility.yul\":2515:2517   */\n      0x40\n        /* \"#utility.yul\":2504:2513   */\n      dup3\n        /* \"#utility.yul\":2500:2518   */\n      add\n        /* \"#utility.yul\":2492:2518   */\n      swap1\n      pop\n        /* \"#utility.yul\":2528:2599   */\n      tag_88\n        /* \"#utility.yul\":2596:2597   */\n      0x00\n        /* \"#utility.yul\":2585:2594   */\n      dup4\n        /* \"#utility.yul\":2581:2598   */\n      add\n        /* \"#utility.yul\":2572:2578   */\n      dup6\n        /* \"#utility.yul\":2528:2599   */\n      tag_55\n      jump\t// in\n    tag_88:\n        /* \"#utility.yul\":2609:2681   */\n      tag_89\n        /* \"#utility.yul\":2677:2679   */\n      0x20\n        /* \"#utility.yul\":2666:2675   */\n      dup4\n        /* \"#utility.yul\":2662:2680   */\n      add\n        /* \"#utility.yul\":2653:2659   */\n      dup5\n        /* \"#utility.yul\":2609:2681   */\n      tag_53\n      jump\t// in\n    tag_89:\n        /* \"#utility.yul\":2356:2688   */\n      swap4\n      swap3\n      pop\n      pop\n      pop\n      jump\t// out\n\n    auxdata: 0xa26469706673582212205b3e6bf688d6f034165c8f475c10bec940b20f121cd38dd7444df35a56b84ab764736f6c63430008160033\n}\n",
				"bytecode": {
					"linkReferences": {},
					"object": "608060405234801561000f575f80fd5b5060405161079e38038061079e8339818101604052810190610031919061011a565b805f806101000a81548173ffffffffffffffffffffffffffffffffffffffff021916908373ffffffffffffffffffffffffffffffffffffffff160217905550814261007c9190610185565b60018190555050506101b8565b5f80fd5b5f819050919050565b61009f8161008d565b81146100a9575f80fd5b50565b5f815190506100ba81610096565b92915050565b5f73ffffffffffffffffffffffffffffffffffffffff82169050919050565b5f6100e9826100c0565b9050919050565b6100f9816100df565b8114610103575f80fd5b50565b5f81519050610114816100f0565b92915050565b5f80604083850312156101305761012f610089565b5b5f61013d858286016100ac565b925050602061014e85828601610106565b9150509250929050565b7f4e487b71000000000000000000000000000000000000000000000000000000005f52601160045260245ffd5b5f61018f8261008d565b915061019a8361008d565b92508282019050808211156101b2576101b1610158565b5b92915050565b6105d9806101c55f395ff3fe608060405260043610610054575f3560e01c80631998aeef1461005857806338af3eed146100625780633ccfd60b1461008c5780634b449cba146100b657806391f90157146100e0578063d57bde791461010a575b5f80fd5b610060610134565b005b34801561006d575f80fd5b506100766102ba565b6040516100839190610466565b60405180910390f35b348015610097575f80fd5b506100a06102dd565b6040516100ad9190610499565b60405180910390f35b3480156100c1575f80fd5b506100ca6103f6565b6040516100d791906104ca565b60405180910390f35b3480156100eb575f80fd5b506100f46103fc565b6040516101019190610503565b60405180910390f35b348015610115575f80fd5b5061011e610421565b60405161012b91906104ca565b60405180910390f35b600154421115610170576040517fd02e774d00000000000000000000000000000000000000000000000000000000815260040160405180910390fd5b60035434116101b8576003546040517f4e12c1bb0000000000000000000000000000000000000000000000000000000081526004016101af91906104ca565b60405180910390fd5b5f600354146102385760035460045f60025f9054906101000a900473ffffffffffffffffffffffffffffffffffffffff1673ffffffffffffffffffffffffffffffffffffffff1673ffffffffffffffffffffffffffffffffffffffff1681526020019081526020015f205f8282546102309190610549565b925050819055505b3360025f6101000a81548173ffffffffffffffffffffffffffffffffffffffff021916908373ffffffffffffffffffffffffffffffffffffffff160217905550346003819055507ff4757a49b326036464bec6fe419a4ae38c8a02ce3e68bf0809674f6aab8ad30033346040516102b092919061057c565b60405180910390a1565b5f8054906101000a900473ffffffffffffffffffffffffffffffffffffffff1681565b5f8060045f3373ffffffffffffffffffffffffffffffffffffffff1673ffffffffffffffffffffffffffffffffffffffff1681526020019081526020015f205490505f8111156103ed575f60045f3373ffffffffffffffffffffffffffffffffffffffff1673ffffffffffffffffffffffffffffffffffffffff1681526020019081526020015f20819055503373ffffffffffffffffffffffffffffffffffffffff166108fc8290811502906040515f60405180830381858888f193505050506103ec578060045f3373ffffffffffffffffffffffffffffffffffffffff1673ffffffffffffffffffffffffffffffffffffffff1681526020019081526020015f20819055505f9150506103f3565b5b60019150505b90565b60015481565b60025f9054906101000a900473ffffffffffffffffffffffffffffffffffffffff1681565b60035481565b5f73ffffffffffffffffffffffffffffffffffffffff82169050919050565b5f61045082610427565b9050919050565b61046081610446565b82525050565b5f6020820190506104795f830184610457565b92915050565b5f8115159050919050565b6104938161047f565b82525050565b5f6020820190506104ac5f83018461048a565b92915050565b5f819050919050565b6104c4816104b2565b82525050565b5f6020820190506104dd5f8301846104bb565b92915050565b5f6104ed82610427565b9050919050565b6104fd816104e3565b82525050565b5f6020820190506105165f8301846104f4565b92915050565b7f4e487b71000000000000000000000000000000000000000000000000000000005f52601160045260245ffd5b5f610553826104b2565b915061055e836104b2565b92508282019050808211156105765761057561051c565b5b92915050565b5f60408201905061058f5f8301856104f4565b61059c60208301846104bb565b939250505056fea26469706673582212205b3e6bf688d6f034165c8f475c10bec940b20f121cd38dd7444df35a56b84ab764736f6c63430008160033",
					"opcodes": "PUSH1 0x80 PUSH1 0x40 MSTORE CALLVALUE DUP1 ISZERO PUSH2 0xF JUMPI PUSH0 DUP1 REVERT JUMPDEST POP PUSH1 0x40 MLOAD PUSH2 0x79E CODESIZE SUB DUP1 PUSH2 0x79E DUP4 CODECOPY DUP2 DUP2 ADD PUSH1 0x40 MSTORE DUP2 ADD SWAP1 PUSH2 0x31 SWAP2 SWAP1 PUSH2 0x11A JUMP JUMPDEST DUP1 PUSH0 DUP1 PUSH2 0x100 EXP DUP2 SLOAD DUP2 PUSH20 0xFFFFFFFFFFFFFFFFFFFFFFFFFFFFFFFFFFFFFFFF MUL NOT AND SWAP1 DUP4 PUSH20 0xFFFFFFFFFFFFFFFFFFFFFFFFFFFFFFFFFFFFFFFF AND MUL OR SWAP1 SSTORE POP DUP2 TIMESTAMP PUSH2 0x7C SWAP2 SWAP1 PUSH2 0x185 JUMP JUMPDEST PUSH1 0x1 DUP2 SWAP1 SSTORE POP POP POP PUSH2 0x1B8 JUMP JUMPDEST PUSH0 DUP1 REVERT JUMPDEST PUSH0 DUP2 SWAP1 POP SWAP2 SWAP1 POP JUMP JUMPDEST PUSH2 0x9F DUP2 PUSH2 0x8D JUMP JUMPDEST DUP2 EQ PUSH2 0xA9 JUMPI PUSH0 DUP1 REVERT JUMPDEST POP JUMP JUMPDEST PUSH0 DUP2 MLOAD SWAP1 POP PUSH2 0xBA DUP2 PUSH2 0x96 JUMP JUMPDEST SWAP3 SWAP2 POP POP JUMP JUMPDEST PUSH0 PUSH20 0xFFFFFFFFFFFFFFFFFFFFFFFFFFFFFFFFFFFFFFFF DUP3 AND SWAP1 POP SWAP2 SWAP1 POP JUMP JUMPDEST PUSH0 PUSH2 0xE9 DUP3 PUSH2 0xC0 JUMP JUMPDEST SWAP1 POP SWAP2 SWAP1 POP JUMP JUMPDEST PUSH2 0xF9 DUP2 PUSH2 0xDF JUMP JUMPDEST DUP2 EQ PUSH2 0x103 JUMPI PUSH0 DUP1 REVERT JUMPDEST POP JUMP JUMPDEST PUSH0 DUP2 MLOAD SWAP1 POP PUSH2 0x114 DUP2 PUSH2 0xF0 JUMP JUMPDEST SWAP3 SWAP2 POP POP JUMP JUMPDEST PUSH0 DUP1 PUSH1 0x40 DUP4 DUP6 SUB SLT ISZERO PUSH2 0x130 JUMPI PUSH2 0x12F PUSH2 0x89 JUMP JUMPDEST JUMPDEST PUSH0 PUSH2 0x13D DUP6 DUP3 DUP7 ADD PUSH2 0xAC JUMP JUMPDEST SWAP3 POP POP PUSH1 0x20 PUSH2 0x14E DUP6 DUP3 DUP7 ADD PUSH2 0x106 JUMP JUMPDEST SWAP2 POP POP SWAP3 POP SWAP3 SWAP1 POP JUMP JUMPDEST PUSH32 0x4E487B7100000000000000000000000000000000000000000000000000000000 PUSH0 MSTORE PUSH1 0x11 PUSH1 0x4 MSTORE PUSH1 0x24 PUSH0 REVERT JUMPDEST PUSH0 PUSH2 0x18F DUP3 PUSH2 0x8D JUMP JUMPDEST SWAP2 POP PUSH2 0x19A DUP4 PUSH2 0x8D JUMP JUMPDEST SWAP3 POP DUP3 DUP3 ADD SWAP1 POP DUP1 DUP3 GT ISZERO PUSH2 0x1B2 JUMPI PUSH2 0x1B1 PUSH2 0x158 JUMP JUMPDEST JUMPDEST SWAP3 SWAP2 POP POP JUMP JUMPDEST PUSH2 0x5D9 DUP1 PUSH2 0x1C5 PUSH0 CODECOPY PUSH0 RETURN INVALID PUSH1 0x80 PUSH1 0x40 MSTORE PUSH1 0x4 CALLDATASIZE LT PUSH2 0x54 JUMPI PUSH0 CALLDATALOAD PUSH1 0xE0 SHR DUP1 PUSH4 0x1998AEEF EQ PUSH2 0x58 JUMPI DUP1 PUSH4 0x38AF3EED EQ PUSH2 0x62 JUMPI DUP1 PUSH4 0x3CCFD60B EQ PUSH2 0x8C JUMPI DUP1 PUSH4 0x4B449CBA EQ PUSH2 0xB6 JUMPI DUP1 PUSH4 0x91F90157 EQ PUSH2 0xE0 JUMPI DUP1 PUSH4 0xD57BDE79 EQ PUSH2 0x10A JUMPI JUMPDEST PUSH0 DUP1 REVERT JUMPDEST PUSH2 0x60 PUSH2 0x134 JUMP JUMPDEST STOP JUMPDEST CALLVALUE DUP1 ISZERO PUSH2 0x6D JUMPI PUSH0 DUP1 REVERT JUMPDEST POP PUSH2 0x76 PUSH2 0x2BA JUMP JUMPDEST PUSH1 0x40 MLOAD PUSH2 0x83 SWAP2 SWAP1 PUSH2 0x466 JUMP JUMPDEST PUSH1 0x40 MLOAD DUP1 SWAP2 SUB SWAP1 RETURN JUMPDEST CALLVALUE DUP1 ISZERO PUSH2 0x97 JUMPI PUSH0 DUP1 REVERT JUMPDEST POP PUSH2 0xA0 PUSH2 0x2DD JUMP JUMPDEST PUSH1 0x40 MLOAD PUSH2 0xAD SWAP2 SWAP1 PUSH2 0x499 JUMP JUMPDEST PUSH1 0x40 MLOAD DUP1 SWAP2 SUB SWAP1 RETURN JUMPDEST CALLVALUE DUP1 ISZERO PUSH2 0xC1 JUMPI PUSH0 DUP1 REVERT JUMPDEST POP PUSH2 0xCA PUSH2 0x3F6 JUMP JUMPDEST PUSH1 0x40 MLOAD PUSH2 0xD7 SWAP2 SWAP1 PUSH2 0x4CA JUMP JUMPDEST PUSH1 0x40 MLOAD DUP1 SWAP2 SUB SWAP1 RETURN JUMPDEST CALLVALUE DUP1 ISZERO PUSH2 0xEB JUMPI PUSH0 DUP1 REVERT JUMPDEST POP PUSH2 0xF4 PUSH2 0x3FC JUMP JUMPDEST PUSH1 0x40 MLOAD PUSH2 0x101 SWAP2 SWAP1 PUSH2 0x503 JUMP JUMPDEST PUSH1 0x40 MLOAD DUP1 SWAP2 SUB SWAP1 RETURN JUMPDEST CALLVALUE DUP1 ISZERO PUSH2 0x115 JUMPI PUSH0 DUP1 REVERT JUMPDEST POP PUSH2 0x11E PUSH2 0x421 JUMP JUMPDEST PUSH1 0x40 MLOAD PUSH2 0x12B SWAP2 SWAP1 PUSH2 0x4CA JUMP JUMPDEST PUSH1 0x40 MLOAD DUP1 SWAP2 SUB SWAP1 RETURN JUMPDEST PUSH1 0x1 SLOAD TIMESTAMP GT ISZERO PUSH2 0x170 JUMPI PUSH1 0x40 MLOAD PUSH32 0xD02E774D00000000000000000000000000000000000000000000000000000000 DUP2 MSTORE PUSH1 0x4 ADD PUSH1 0x40 MLOAD DUP1 SWAP2 SUB SWAP1 REVERT JUMPDEST PUSH1 0x3 SLOAD CALLVALUE GT PUSH2 0x1B8 JUMPI PUSH1 0x3 SLOAD PUSH1 0x40 MLOAD PUSH32 0x4E12C1BB00000000000000000000000000000000000000000000000000000000 DUP2 MSTORE PUSH1 0x4 ADD PUSH2 0x1AF SWAP2 SWAP1 PUSH2 0x4CA JUMP JUMPDEST PUSH1 0x40 MLOAD DUP1 SWAP2 SUB SWAP1 REVERT JUMPDEST PUSH0 PUSH1 0x3 SLOAD EQ PUSH2 0x238 JUMPI PUSH1 0x3 SLOAD PUSH1 0x4 PUSH0 PUSH1 0x2 PUSH0 SWAP1 SLOAD SWAP1 PUSH2 0x100 EXP SWAP1 DIV PUSH20 0xFFFFFFFFFFFFFFFFFFFFFFFFFFFFFFFFFFFFFFFF AND PUSH20 0xFFFFFFFFFFFFFFFFFFFFFFFFFFFFFFFFFFFFFFFF AND PUSH20 0xFFFFFFFFFFFFFFFFFFFFFFFFFFFFFFFFFFFFFFFF AND DUP2 MSTORE PUSH1 0x20 ADD SWAP1 DUP2 MSTORE PUSH1 0x20 ADD PUSH0 KECCAK256 PUSH0 DUP3 DUP3 SLOAD PUSH2 0x230 SWAP2 SWAP1 PUSH2 0x549 JUMP JUMPDEST SWAP3 POP POP DUP2 SWAP1 SSTORE POP JUMPDEST CALLER PUSH1 0x2 PUSH0 PUSH2 0x100 EXP DUP2 SLOAD DUP2 PUSH20 0xFFFFFFFFFFFFFFFFFFFFFFFFFFFFFFFFFFFFFFFF MUL NOT AND SWAP1 DUP4 PUSH20 0xFFFFFFFFFFFFFFFFFFFFFFFFFFFFFFFFFFFFFFFF AND MUL OR SWAP1 SSTORE POP CALLVALUE PUSH1 0x3 DUP2 SWAP1 SSTORE POP PUSH32 0xF4757A49B326036464BEC6FE419A4AE38C8A02CE3E68BF0809674F6AAB8AD300 CALLER CALLVALUE PUSH1 0x40 MLOAD PUSH2 0x2B0 SWAP3 SWAP2 SWAP1 PUSH2 0x57C JUMP JUMPDEST PUSH1 0x40 MLOAD DUP1 SWAP2 SUB SWAP1 LOG1 JUMP JUMPDEST PUSH0 DUP1 SLOAD SWAP1 PUSH2 0x100 EXP SWAP1 DIV PUSH20 0xFFFFFFFFFFFFFFFFFFFFFFFFFFFFFFFFFFFFFFFF AND DUP2 JUMP JUMPDEST PUSH0 DUP1 PUSH1 0x4 PUSH0 CALLER PUSH20 0xFFFFFFFFFFFFFFFFFFFFFFFFFFFFFFFFFFFFFFFF AND PUSH20 0xFFFFFFFFFFFFFFFFFFFFFFFFFFFFFFFFFFFFFFFF AND DUP2 MSTORE PUSH1 0x20 ADD SWAP1 DUP2 MSTORE PUSH1 0x20 ADD PUSH0 KECCAK256 SLOAD SWAP1 POP PUSH0 DUP2 GT ISZERO PUSH2 0x3ED JUMPI PUSH0 PUSH1 0x4 PUSH0 CALLER PUSH20 0xFFFFFFFFFFFFFFFFFFFFFFFFFFFFFFFFFFFFFFFF AND PUSH20 0xFFFFFFFFFFFFFFFFFFFFFFFFFFFFFFFFFFFFFFFF AND DUP2 MSTORE PUSH1 0x20 ADD SWAP1 DUP2 MSTORE PUSH1 0x20 ADD PUSH0 KECCAK256 DUP2 SWAP1 SSTORE POP CALLER PUSH20 0xFFFFFFFFFFFFFFFFFFFFFFFFFFFFFFFFFFFFFFFF AND PUSH2 0x8FC DUP3 SWAP1 DUP2 ISZERO MUL SWAP1 PUSH1 0x40 MLOAD PUSH0 PUSH1 0x40 MLOAD DUP1 DUP4 SUB DUP2 DUP6 DUP9 DUP9 CALL SWAP4 POP POP POP POP PUSH2 0x3EC JUMPI DUP1 PUSH1 0x4 PUSH0 CALLER PUSH20 0xFFFFFFFFFFFFFFFFFFFFFFFFFFFFFFFFFFFFFFFF AND PUSH20 0xFFFFFFFFFFFFFFFFFFFFFFFFFFFFFFFFFFFFFFFF AND DUP2 MSTORE PUSH1 0x20 ADD SWAP1 DUP2 MSTORE PUSH1 0x20 ADD PUSH0 KECCAK256 DUP2 SWAP1 SSTORE POP PUSH0 SWAP2 POP POP PUSH2 0x3F3 JUMP JUMPDEST JUMPDEST PUSH1 0x1 SWAP2 POP POP JUMPDEST SWAP1 JUMP JUMPDEST PUSH1 0x1 SLOAD DUP2 JUMP JUMPDEST PUSH1 0x2 PUSH0 SWAP1 SLOAD SWAP1 PUSH2 0x100 EXP SWAP1 DIV PUSH20 0xFFFFFFFFFFFFFFFFFFFFFFFFFFFFFFFFFFFFFFFF AND DUP2 JUMP JUMPDEST PUSH1 0x3 SLOAD DUP2 JUMP JUMPDEST PUSH0 PUSH20 0xFFFFFFFFFFFFFFFFFFFFFFFFFFFFFFFFFFFFFFFF DUP3 AND SWAP1 POP SWAP2 SWAP1 POP JUMP JUMPDEST PUSH0 PUSH2 0x450 DUP3 PUSH2 0x427 JUMP JUMPDEST SWAP1 POP SWAP2 SWAP1 POP JUMP JUMPDEST PUSH2 0x460 DUP2 PUSH2 0x446 JUMP JUMPDEST DUP3 MSTORE POP POP JUMP JUMPDEST PUSH0 PUSH1 0x20 DUP3 ADD SWAP1 POP PUSH2 0x479 PUSH0 DUP4 ADD DUP5 PUSH2 0x457 JUMP JUMPDEST SWAP3 SWAP2 POP POP JUMP JUMPDEST PUSH0 DUP2 ISZERO ISZERO SWAP1 POP SWAP2 SWAP1 POP JUMP JUMPDEST PUSH2 0x493 DUP2 PUSH2 0x47F JUMP JUMPDEST DUP3 MSTORE POP POP JUMP JUMPDEST PUSH0 PUSH1 0x20 DUP3 ADD SWAP1 POP PUSH2 0x4AC PUSH0 DUP4 ADD DUP5 PUSH2 0x48A JUMP JUMPDEST SWAP3 SWAP2 POP POP JUMP JUMPDEST PUSH0 DUP2 SWAP1 POP SWAP2 SWAP1 POP JUMP JUMPDEST PUSH2 0x4C4 DUP2 PUSH2 0x4B2 JUMP JUMPDEST DUP3 MSTORE POP POP JUMP JUMPDEST PUSH0 PUSH1 0x20 DUP3 ADD SWAP1 POP PUSH2 0x4DD PUSH0 DUP4 ADD DUP5 PUSH2 0x4BB JUMP JUMPDEST SWAP3 SWAP2 POP POP JUMP JUMPDEST PUSH0 PUSH2 0x4ED DUP3 PUSH2 0x427 JUMP JUMPDEST SWAP1 POP SWAP2 SWAP1 POP JUMP JUMPDEST PUSH2 0x4FD DUP2 PUSH2 0x4E3 JUMP JUMPDEST DUP3 MSTORE POP POP JUMP JUMPDEST PUSH0 PUSH1 0x20 DUP3 ADD SWAP1 POP PUSH2 0x516 PUSH0 DUP4 ADD DUP5 PUSH2 0x4F4 JUMP JUMPDEST SWAP3 SWAP2 POP POP JUMP JUMPDEST PUSH32 0x4E487B7100000000000000000000000000000000000000000000000000000000 PUSH0 MSTORE PUSH1 0x11 PUSH1 0x4 MSTORE PUSH1 0x24 PUSH0 REVERT JUMPDEST PUSH0 PUSH2 0x553 DUP3 PUSH2 0x4B2 JUMP JUMPDEST SWAP2 POP PUSH2 0x55E DUP4 PUSH2 0x4B2 JUMP JUMPDEST SWAP3 POP DUP3 DUP3 ADD SWAP1 POP DUP1 DUP3 GT ISZERO PUSH2 0x576 JUMPI PUSH2 0x575 PUSH2 0x51C JUMP JUMPDEST JUMPDEST SWAP3 SWAP2 POP POP JUMP JUMPDEST PUSH0 PUSH1 0x40 DUP3 ADD SWAP1 POP PUSH2 0x58F PUSH0 DUP4 ADD DUP6 PUSH2 0x4F4 JUMP JUMPDEST PUSH2 0x59C PUSH1 0x20 DUP4 ADD DUP5 PUSH2 0x4BB JUMP JUMPDEST SWAP4 SWAP3 POP POP POP JUMP INVALID LOG2 PUSH5 0x6970667358 0x22 SLT KECCAK256 JUMPDEST RETURNDATACOPY PUSH12 0xF688D6F034165C8F475C10BE 0xC9 BLOCKHASH 0xB2 0xF SLT SHR 0xD3 DUP14 0xD7 PREVRANDAO 0x4D RETURN GAS JUMP 0xB8 0x4A 0xB7 PUSH5 0x736F6C6343 STOP ADDMOD AND STOP CALLER "
				},
				"gasEstimates": {
					"creation": {
						"codeDepositCost": "299400",
						"executionCost": "infinite",
						"totalCost": "infinite"
					},
					"external": {
						"auctionEndTime()": "2469",
						"beneficiary()": "2505",
						"bid()": "infinite",
						"highestBid()": "2513",
						"highestBidder()": "2574",
						"withdraw()": "infinite"
					}
				},
				"methodIdentifiers": {
					"auctionEndTime()": "4b449cba",
					"beneficiary()": "38af3eed",
					"bid()": "1998aeef",
					"highestBid()": "d57bde79",
					"highestBidder()": "91f90157",
					"withdraw()": "3ccfd60b"
				}
			},
			"storageLayout": {
				"storage": [
					{
						"astId": 3,
						"contract": "Рабочий стол/ETH projects/Open Auction/open_auction/auction.sol:SimpleAuction",
						"label": "beneficiary",
						"offset": 0,
						"slot": "0",
						"type": "t_address_payable"
					},
					{
						"astId": 5,
						"contract": "Рабочий стол/ETH projects/Open Auction/open_auction/auction.sol:SimpleAuction",
						"label": "auctionEndTime",
						"offset": 0,
						"slot": "1",
						"type": "t_uint256"
					},
					{
						"astId": 7,
						"contract": "Рабочий стол/ETH projects/Open Auction/open_auction/auction.sol:SimpleAuction",
						"label": "highestBidder",
						"offset": 0,
						"slot": "2",
						"type": "t_address"
					},
					{
						"astId": 9,
						"contract": "Рабочий стол/ETH projects/Open Auction/open_auction/auction.sol:SimpleAuction",
						"label": "highestBid",
						"offset": 0,
						"slot": "3",
						"type": "t_uint256"
					},
					{
						"astId": 13,
						"contract": "Рабочий стол/ETH projects/Open Auction/open_auction/auction.sol:SimpleAuction",
						"label": "pendingReturns",
						"offset": 0,
						"slot": "4",
						"type": "t_mapping(t_address,t_uint256)"
					},
					{
						"astId": 15,
						"contract": "Рабочий стол/ETH projects/Open Auction/open_auction/auction.sol:SimpleAuction",
						"label": "ended",
						"offset": 0,
						"slot": "5",
						"type": "t_bool"
					}
				],
				"types": {
					"t_address": {
						"encoding": "inplace",
						"label": "address",
						"numberOfBytes": "20"
					},
					"t_address_payable": {
						"encoding": "inplace",
						"label": "address payable",
						"numberOfBytes": "20"
					},
					"t_bool": {
						"encoding": "inplace",
						"label": "bool",
						"numberOfBytes": "1"
					},
					"t_mapping(t_address,t_uint256)": {
						"encoding": "mapping",
						"key": "t_address",
						"label": "mapping(address => uint256)",
						"numberOfBytes": "32",
						"value": "t_uint256"
					},
					"t_uint256": {
						"encoding": "inplace",
						"label": "uint256",
						"numberOfBytes": "32"
					}
				}
			},
			"userdoc": {
				"errors": {
					"AuctionAlreadyEnded()": [
						{
							"notice": "The auction has already ended"
						}
					],
					"AuctionEndAlreadyCalled()": [
						{
							"notice": "The function auctionEnd has already been called"
						}
					],
					"AuctionNotEndedYet()": [
						{
							"notice": "The auction has not ended yet"
						}
					],
					"BidNotHighEnough(uint256)": [
						{
							"notice": "There is already higher or equal bid"
						}
					]
				},
				"kind": "user",
				"methods": {},
				"version": 1
			}
		}
	}
}